:020000040800F2
:1000000000800120D9200008B90A0008BB0A0008B6
:10001000BD0A0008BF0A0008C10A0008000000006D
:10002000000000000000000000000000C30A0008FB
:10003000C50A000800000000C70A0008C90A000835
:100040002921000829210008292100082921000868
:100050002921000829210008292100082921000858
:100060002921000829210008292100082921000848
:100070002921000829210008292100082921000838
:10008000292100082921000829210008000000007A
:10009000000000000000000000000000292100080E
:1000A0002921000829210008292100082921000808
:1000B00029210008292100082921000829210008F8
:1000C00029210008292100082921000829210008E8
:1000D0002921000829210008D10A00080000000099
:1000E000292100082921000829210008000000001A
:1000F00000000000000000000000000029210008AE
:1001000000000000292100082921000829210008F9
:1001100000000000000000000000000000000000DF
:100120002921000829210008292100082921000887
:10013000292100080000000000000000000000006D
:10014000000000000000000000000000292100085D
:100150002921000829210008292100082921000857
:1001600029210008292100080000000000000000EB
:10017000000000000000000000000000000000007F
:10018000000000002921000800000000000000001D
:040190002921000819
:1001A00010B5054C237833B9044B13B10448AFF3B1
:1001B00000800123237010BD7400002000000000A7
:1001C000E032000808B5034B1BB103490348AFF305
:1001D000008008BD0000000078000020E032000828
:1001E00053B94AB9002908BF00281CBF4FF0FF319E
:1001F0004FF0FF3000F072B9ADF1080C6DE904CE9C
:1002000000F006F8DDF804E0DDE9022304B07047F1
:100210002DE9F047089E04468846002B4BD18A42C0
:10022000154667D9B2FA82F24AB1C2F1200701FA43
:1002300002F320FA07F7954047EA030894404FEA93
:10024000154E230CB8FBFEF71FFA85FC0EFB178832
:1002500043EA084307FB0CF1994209D9EB1807F16F
:10026000FF3080F01B81994240F21881023F2B44FD
:100270005B1AA4B2B3FBFEF00EFB103344EA034456
:1002800000FB0CFCA44509D92C1900F1FF3380F0C8
:100290000781A44540F2048102382C4440EA07401B
:1002A000A4EB0C0400271EB1D4400023C6E9004390
:1002B0003946BDE8F0878B4209D9002E00F0EB806B
:1002C0000027C6E9000138463946BDE8F087B3FA91
:1002D00083F7002F47D18B4202D3824200F2FA808B
:1002E000841A61EB030301209846002EE0D0C6E992
:1002F0000048DDE702B9FFDEB2FA82F2002A40F0E0
:100300008F80491B4FEA154E1FFA85F80127B1FB74
:10031000FEFC230C0EFB1C1143EA014308FB0CF10D
:10032000994207D9EB180CF1FF3002D2994200F242
:10033000CD808446591AA3B2B1FBFEF00EFB101417
:1003400043EA044408FB00F8A04507D92C1900F142
:10035000FF3302D2A04500F2B6801846A4EB080491
:1003600040EA0C409FE7C7F1200CBB4022FA0CFE8C
:100370004EEA030E01FA07F420FA0CF521FA0CF309
:100380004FEA1E482543B3FBF8F92C0C08FB193340
:100390001FFA8EFA44EA034309FB0AF49C4202FA6C
:1003A00007F200FA07F10BD91EEB030309F1FF3046
:1003B00080F087809C4240F28480A9F10209734456
:1003C0001B1BADB2B3FBF8F008FB103345EA034446
:1003D00000FB0AFAA24508D91EEB040400F1FF3322
:1003E0006BD2A24569D90238744440EA0940A0FBA7
:1003F0000289A4EB0A044C45C2464B4654D351D063
:10040000002E69D0B1EB0A0564EB030404FA0CFC7E
:10041000FD40FC404CEA0505C6E90054002747E7CB
:10042000C2F1200320FA03F7954001FA02F021FA05
:1004300003F34FEA154E3843010CB3FBFEF71FFAE6
:1004400085F80EFB173341EA034107FB08F38B42A3
:1004500004FA02F407D9691807F1FF3C2FD28B4246
:100460002DD9023F2944CB1A81B2B3FBFEF00EFB1B
:10047000103341EA034100FB08F38B4207D96918A6
:1004800000F1FF3C17D28B4215D902382944C91A12
:1004900040EA07473BE73746304609E70746E7E6C5
:1004A0001846FBE64145ABD2B8EB020A69EB0E02F7
:1004B00001381346A4E76046E9E7184695E7674622
:1004C000D1E781467CE702382C4447E7ACF1020CC7
:1004D0002B442FE7384608E73746E9E6704700BF68
:1004E000034613F8012B002AFBD1181A0138704774
:1004F00001F0FF01102A2BDB10F0070F08D010F8D5
:10050000013B013A8B422DD010F0070F42B3F6D1D8
:10051000F0B441EA012141EA014122F007047FF0F1
:1005200000070023F0E80256083C85EA010586EA48
:10053000010685FA47F5A3FA87F586FA47F6A5FA84
:1005400087F68EB9EED1F0BC01F0FF0102F0070290
:1005500032B110F8013B013A83EA010313B1F8D13B
:100560000020704701387047002D06BF354603381C
:10057000073815F0010F07D1013015F4807F02BF55
:10058000013015F4C03F0130F0BC0138704700BFA6
:1005900030B587B000240194029403940494059428
:1005A00000940E4B1A6B42F001021A631B6B03F0AE
:1005B00001030093009B0A4D22462021284600F0AB
:1005C00083FC20230193012302930394049401A943
:1005D000284600F0A7FB07B030BD00BF003802403E
:1005E0000000024008B50848084B03604FF4E133AF
:1005F000436000238360C36003610C224261836116
:10060000C36101F0A2FB08BD0401002000440040CA
:1006100030B587B0002401940294039404940594A7
:100620000094154D154B2B606C607F23AB60FF234E
:10063000EB602C616C61AC61284601F058F88DF8D4
:1006400004408DF805408DF8064004940594224638
:1006500001A9284601F0B8F801238DF800308DF883
:1006600001308DF802308DF8034022466946284655
:1006700001F029F907B030BDBC000020002800407F
:1006800010B598B0302200210DEB020001F078FD8A
:1006900000240794089409940A940B9402940394F8
:1006A00004940594069400941A4B1A6C42F08052FC
:1006B0001A641B6C03F080530093009B0194164A4C
:1006C000136823F4404343F400431360136803F4B6
:1006D00040430193019B0A230C9301230F931022A3
:1006E0001092119312940CA800F0F4FB0F230793BF
:1006F000089409940A940B94214607A800F034FE4C
:10070000022302934FF40073059302A800F002FF46
:1007100018B010BD003802400070004000B597B01E
:1007200000F056FAFFF7ACFFFFF732FFFFF75AFF72
:10073000FFF76EFF31E0894C894E0022214630469A
:1007400001F037F9874D00222946304601F05CF967
:10075000AB786978E87825786678A278824C099237
:10076000022208920796069205950492039002923F
:10077000019100927D49204601F022FD2046FFF7BD
:10078000AFFE4FF47A7382B22146794801F00CFB38
:10079000784B06221A7001225A70764B1B78062B72
:1007A000FBD801A252F823F037070008C50700085C
:1007B0001D08000875080008AB080008E3080008D9
:1007C0003F0900086C4B19785A7801EB8101480009
:1007D0000244103A61490A709878DA7800EB800098
:1007E00044002244103A4A701A795B7902EB820283
:1007F00050000344103B8B700022594800F0E4FF86
:100800000AAC5E4D0FCD0FC42B6823700AA95C485B
:1008100001F0BEFC574B00221A70BEE7564B197808
:100820005A7801EB810148000244103A4D498A7020
:100830009878DA7800EB800044002244103A4A703D
:100840001A795B7902EB820250000344103BCB70B3
:100850000022434801F037F80AAC4A4D0FCD0FC4CF
:100860002B6823700AA9464801F092FC414B0022F4
:100870001A7092E7444B1B78012B8ED1424B002219
:100880001A700AAC414D0FCD0FC40FCD0FC495E8BF
:10089000030084E803000AA9394801F079FC062224
:1008A0003549334801F0F1FA77E7374B5B78012B94
:1008B0007FF473AF344B00225A700AAC344D0FCD25
:1008C0000FC40FCD0FC495E8030084E803000AA904
:1008D0002B4801F05DFC06222749254801F0D5FA96
:1008E0005BE7254B1B78482B17D0562B23D0442B86
:1008F0001AD00AAC274D0FCD0FC40FCD0FC495E809
:100900000F0007C423700AA91D4801F041FC194BD0
:1009100006221A7001225A703FE7164B03221A7002
:10092000194B01221A7038E7124B04221A70164B29
:1009300001225A7031E70F4B00221A702DE70D4B40
:100940005B78012B7FF429AF01220B49084801F0A5
:100950009CFA084B00225A701FE700BFA800002035
:10096000BC000020A4000020DC00002010330008A0
:100970000401002000000020FC00002038330008A3
:10098000343300084C330008900000206033000826
:1009900088330008B033000810B582B0044602A9BD
:1009A00001F8040D0A230122024801F0FDF9204656
:1009B00002B010BD040100200A4B1B78042B08D0A4
:1009C000062B0AD0032B00D07047064B01221A7069
:1009D0007047044B02221A707047024B05221A70AE
:1009E000F2E700BF0000002082B0002100910B4B15
:1009F0005A6C42F480425A645A6C02F4804200926B
:100A0000009A01911A6C42F080521A641B6C03F038
:100A100080530193019B02B0704700BF0038024031
:100A20000268044B9A4200D07047034B01221A60BF
:100A3000FAE700BF002800403C0E474210B588B0DE
:100A40000023039304930593069307930268184BBE
:100A50009A4201D008B010BD0024019403F5FA3386
:100A60001A6C42F400321A641A6C02F400320192D9
:100A7000019A02941A6B42F001021A631B6B03F095
:100A800001030293029B0C23039302230493032389
:100A900006930723079303A9064800F043F922466B
:100AA0002146262000F0D2F8262000F003F9D1E7F5
:100AB00000440040000002407047FEE7FEE7FEE70A
:100AC000FEE770477047704708B500F09BF808BD17
:100AD00008B5024801F064FA08BD00BF0401002017
:100AE00070B50D461646002404E0AFF30080287070
:100AF00001340135B442F8DB304670BD70B516469E
:100B0000002405E04D1C0878FFF746FF0134294614
:100B1000B442F7DB304670BD08B503460B4A126895
:100B200042B10A4A106803446A46934206D8074A0B
:100B3000136008BD054A06491160F2E701F0F6FAB4
:100B40000C2303604FF0FF30F3E700BF9400002058
:100B5000500100204FF0FF3070474FF400534B60BE
:100B6000002070470120704700207047054BD3F8E4
:100B7000882042F47002C3F888204FF000629A6027
:100B8000704700BF00ED00E010B504460E4B18782A
:100B90004FF47A73B3FBF0F30C4A1068B0FBF3F038
:100BA00000F096F868B90F2C01D901200AE0002264
:100BB00021464FF0FF3000F049F8034B5C60002005
:100BC00000E0012010BD00BF08000020040000204C
:100BD00008B50B4B1A6842F400721A601A6842F4A6
:100BE00080621A601A6842F480721A60032000F072
:100BF0001BF80020FFF7C8FFFFF7F6FE002008BD36
:100C0000003C0240034A1168034B1B780B441360FD
:100C1000704700BF4401002008000020014B186805
:100C2000704700BF44010020074AD36823F4E06303
:100C30001B041B0C000200F4E060184340F0BF608E
:100C400040F40030D060704700ED00E030B4174B46
:100C5000DB68C3F30223C3F10704042C28BF042478
:100C60001D1D062D18D9033B4FF0FF3505FA04F47E
:100C700021EA0401994005FA03F322EA0303194328
:100C800000280BDB0901C9B200F1604000F56140AA
:100C900080F8001330BC70470023E5E700F00F0038
:100CA0000901C9B2024B1954F4E700BF00ED00E09E
:100CB00014ED00E0002807DB00F01F0240090123CB
:100CC0009340024A42F82030704700BF00E100E044
:100CD0000138B0F1807F0AD2064B5860064AF021F5
:100CE00082F823100020986007221A6070470120C4
:100CF000704700BF10E000E000ED00E090F83530F4
:100D0000DBB2022B03D0802343650120704705230B
:100D100080F835300268136823F001031360002067
:100D20007047000000230F2B00F2C580F0B583B0A0
:100D300039E0042200E00022AA403A4302345E4D2A
:100D400045F824205D4A1468F24302EA04054F681E
:100D500017F4803F01D046EA0405584C25606468CA
:100D600002EA04054F6817F4003F01D046EA040583
:100D7000524C6560A46802EA04054F6817F4801FAE
:100D800001D046EA04054D4CA560E46822404D6858
:100D900015F4001F01D046EA0402484CE26001331A
:100DA0000F2B00F2868001229A400C6804EA0206AA
:100DB000B242F4D14C68651E012D03D9112C01D02B
:100DC000122C12D185685F000324BC4025EA04057B
:100DD000CC68BC402C438460456825EA02054C6819
:100DE000C4F300129A402A434260C4685F000322A1
:100DF000BA40D24314408D68BD402543C5604C685D
:100E0000022C01D0122C13D1DD08083550F825E052
:100E100003F007044FEA840C0F2404FA0CF42EEAC2
:100E2000040E0C6904FA0CF444EA0E0440F8254060
:100E3000046822404C6804F00304BC402243026072
:100E40004A6812F0805FAAD0002201921C4A546CBA
:100E500044F480445464526C02F480420192019A3A
:100E60009C08A51C144A52F8257003F00302950053
:100E70000F22AA4027EA0207124A90423FF45BAFD2
:100E800002F5806290420ED002F5806290420CD052
:100E900002F5806290420AD002F5806290423FF4EF
:100EA00048AF072248E7012246E7022244E703222F
:100EB00042E703B0F0BD704700380140003C0140FC
:100EC000003802400000024012B9090481617047F5
:100ED00081617047002800F0E48170B582B004465B
:100EE000036813F0010F3BD0A74B9B6803F00C0382
:100EF000042B2CD0A44B9B6803F00C03082B21D0AF
:100F00006368B3F5803F4FD0B3F5A02F52D09E4B0E
:100F10001A6822F480321A601A6822F480221A6059
:100F20006368002B50D0FFF779FE0546964B1B688F
:100F300013F4003F14D1FFF771FE401B6428F5D96C
:100F40000320B3E1904B5B6813F4800FD8D08E4B35
:100F50001B6813F4003F03D06368002B00F0A381EB
:100F6000236813F0020F55D0874B9B6813F00C0FCA
:100F70003ED0854B9B6803F00C03082B33D0E3680D
:100F8000002B68D0814B01221A60FFF747FE05460F
:100F90007D4B1B6813F0020F54D1FFF73FFE401B3F
:100FA0000228F5D9032081E1774A136843F480339E
:100FB0001360B5E7744B1A6842F480221A601A680D
:100FC00042F480321A60ABE7FFF728FE05466E4B0D
:100FD0001B6813F4003FC3D0FFF720FE401B6428BA
:100FE000F5D9032062E1684B5B6813F4800FC6D12A
:100FF000654B1B6813F0020F04D0E368012B01D08E
:10100000012053E1604A136823F0F803216943EAA1
:10101000C1031360236813F0080F40D0636963B302
:101020005B4B01221A60FFF7F9FD0546564B5B6FDB
:1010300013F0020F33D1FFF7F1FD401B0228F5D961
:10104000032033E1504A136823F0F803216943EA8F
:10105000C1031360DEE74D4B00221A60FFF7DEFD8F
:101060000546494B1B6813F0020FD3D0FFF7D6FD9E
:10107000401B0228F5D9032018E1454B00221A60D5
:10108000FFF7CCFD0546404B5B6F13F0020F06D017
:10109000FFF7C4FD401B0228F5D9032006E12368B1
:1010A00013F0040F79D0384B1B6C13F0805F33D1F1
:1010B00000230193344B1A6C42F080521A641B6C6B
:1010C00003F080530193019B0125324B1B6813F4FD
:1010D000807F23D0A368012B34D0052B38D02A4B36
:1010E0001A6F22F001021A671A6F22F004021A67BF
:1010F000A368002B36D0FFF791FD0646224B1B6FED
:1011000013F0020F48D1FFF789FD801B41F28833AD
:101110009842F3D90320C9E00025D6E71D4A136899
:1011200043F480731360FFF779FD0646194B1B6883
:1011300013F4807FCED1FFF771FD801B0228F5D913
:101140000320B3E0104A136F43F001031367CFE7A6
:101150000D4B1A6F42F004021A671A6F42F0010237
:101160001A67C5E7FFF75AFD0646074B1B6F13F0DA
:10117000020F11D0FFF752FD801B41F288339842D5
:10118000F3D9032092E000BF00380240000047423C
:10119000800E474200700040EDB9A369002B00F0BB
:1011A0008480454A926802F00C02082A51D0022B32
:1011B00017D0424B00221A60FFF730FD04463E4B29
:1011C0001B6813F0007F42D0FFF728FD001B0228A8
:1011D000F5D903206AE0384A136C23F08053136476
:1011E000DBE7364B00221A60FFF718FD0546324B4D
:1011F0001B6813F0007F06D0FFF710FD401B02288C
:10120000F5D9032052E0E369226A1343626A43EA94
:101210008213A26A5208013A43EA0243E26A43EAAD
:101220000263254A5360254B01221A60FFF7F6FC42
:101230000446214B1B6813F0007F06D1FFF7EEFC3C
:10124000001B0228F5D9032030E000202EE000200A
:101250002CE0012B2CD0184B5B6803F48001E26971
:10126000914201D0012021E003F03F02216A8A422D
:1012700001D001201AE0616A47F6C0721A408A4222
:1012800001D0012012E003F44032A16A8A4201D069
:1012900001200BE003F07063E26A93420AD0012060
:1012A00004E001207047012000E0002002B070BD82
:1012B0000120FBE70020F9E70038024060004742C8
:1012C000264B9B6803F00C03042B44D0082B01D061
:1012D000234870472DE9F04B204B5A6802F03F023B
:1012E0005B6813F4800F13D01C4B5968C1F388114D
:1012F00000231C48A1FB0001FEF772FF174B5B683F
:10130000C3F3014301335B00B0FBF3F0BDE8F08BA6
:10131000124B5B68C3F388131E4600275C0100254F
:10132000E41A65EB0705A90141EA9461A001001BDD
:1013300061EB0501CB0043EA5073C400A01943EBF5
:1013400007018B0243EA905384022046194600238A
:10135000FEF746FFD2E70348704700BF003802405F
:101360000024F40040787D01002800F09E8070B5D4
:101370000446504B1B6803F00F038B4209D2CBB2DB
:101380004C4A1370136803F00F038B4201D0012005
:1013900070BD236813F0020F17D013F0040F04D0B0
:1013A000454A936843F4E0539360236813F0080FB1
:1013B00004D0414A936843F4604393603E4A936883
:1013C00023F0F003A068034393600D46236813F0F5
:1013D000010F32D06368012B21D09A1E012A25D932
:1013E000354A126812F0020F61D033498A6822F040
:1013F000030213438B60FFF711FC06462E4B9B68DC
:1014000003F00C036268B3EB820F16D0FFF706FC03
:10141000801B41F288339842F0D90320B8E7264A6E
:10142000126812F4003FE0D10120B1E7224A1268AD
:1014300012F0007FD9D10120AAE71E4B1B6803F0F0
:101440000F03AB4209D9EAB21A4B1A701B6803F0BA
:101450000F03AB4201D001209AE7236813F0040F79
:1014600006D0154A936823F4E053E1680B43936078
:10147000236813F0080F07D00F4A936823F46043E2
:10148000216943EAC1039360FFF71AFF0A4B9B6887
:10149000C3F30313094AD35CD840094B1860094BC6
:1014A0001868FFF771FB002072E7012070470120E8
:1014B0006EE700BF003C024000380240F8320008EE
:1014C000040000200C000020014B1868704700BF8A
:1014D0000400002008B5FFF7F7FF044B9B68C3F337
:1014E0008223034AD35CD84008BD00BF00380240C5
:1014F0000833000808B5FFF7E7FF044B9B68C3F308
:101500004233034AD35CD84008BD00BF00380240D4
:101510000833000830B583B00446036813F0050FA4
:101520000ED1236813F0020F36D1236813F0080F91
:1015300000F09980227C4D4B1A60002003B030BD32
:101540004B4B00221A60FFF769FB0546494B1B68AD
:1015500013F0006F06D0FFF761FB401B0228F5D99E
:101560000320EBE76268A3681B0743EA8213414A42
:10157000C2F884303E4B01221A60FFF74FFB05464C
:101580003C4B1B6813F0006FCBD1FFF747FB401BB0
:101590000228F5D90320D1E700230193354B1A6CBB
:1015A00042F080521A641B6C03F080530193019B3C
:1015B000314A136843F480731360FFF72FFB05462D
:1015C0002D4B1B6813F4807F06D1FFF727FB401BD0
:1015D0000228F5D90320B1E7264B1B6F13F44073A3
:1015E00012D0E26802F440729A420DD0214B1A6F79
:1015F00022F44072214901200860002008601A6727
:101600001B6F13F0010F12D1E36803F44072B2F5BF
:10161000407F1DD0174A936823F4F813936015494F
:101620000B6FE268C2F30B0213430B677DE7FFF712
:10163000F5FA05460F4B1B6F13F0020FE4D1FFF7CD
:10164000EDFA401B41F288339842F3D9032075E745
:1016500008498A6822F4F81223F0704323F4407397
:1016600013438B60DBE7002068E700BFE0114742CF
:10167000680047420038024000700040400E474278
:1016800038B504460268D36823F0A003D360FFF79F
:10169000C5FA05462368DB6813F0200F07D1FFF772
:1016A000BDFA401BB0F57A7FF4D9032000E000209A
:1016B00038BD38B50368DA6812F0400F01D0002059
:1016C00038BD04464FF0FF32DA60FFF7A7FA05464F
:1016D0002368DB6813F0400F07D1FFF79FFA401B28
:1016E000B0F57A7FF4D90320EAE70020E8E738B5BF
:1016F00000285CD00446437F002B40D00223637750
:101700002368CA225A62236853225A622046FFF78E
:10171000D0FF0546002836D12268936823F4E00301
:1017200023F04003936021688A686368206903435B
:101730006069034313438B602368E2681A6122687F
:101740001369A16843EA014313612268D36823F057
:101750008003D36023689B6813F0200F1BD022689E
:10176000136C23F4802313642268136CA1690B4368
:1017700013642368FF225A620123637709E0037729
:10178000FFF74EF9BAE72368FF225A620423637712
:101790000125284638BD2046FFF772FF0028DED01D
:1017A0002368FF225A62042363770125F1E70125AC
:1017B000EFE7002302E001330A38C0B20928FAD863
:1017C0001B01DBB218437047F8B5037F012B78D0BB
:1017D0000D4604460123037702234377002A46D1AE
:1017E00003689B6813F0400F01D10023CB70287869
:1017F000FFF7DFFF06046878FFF7DBFF46EA002605
:10180000A878FFF7D6FF3043EE7840EA0646236813
:10181000CA225A62236853225A622046FFF749FFC0
:101820000746002835D1236806F07F3626F0FE46AD
:101830001E602268936823F48023936021688B687C
:10184000EA682869024313438B602268D36823F057
:101850008003D36023689B6813F0200F23D0236894
:10186000FF225A62012363770023237719E003687C
:101870009B6813F0400F01D10023CB702B78687860
:10188000000240EA0340AB781843EE7840EA06468F
:10189000BDE72368FF225A6204236377002323777E
:1018A00001273846F8BD2046FFF7EAFE0028D6D0CB
:1018B0002368FF225A6204236377002323770127DA
:1018C000EFE70227EDE770B5037F012B66D0012318
:1018D0000377022343773AB94B7813F0100F03D004
:1018E00003F0EF030A334B700E460446002A32D150
:1018F000C878FFF75EFF05047078FFF75AFF45EAE6
:101900000025B078FFF755FF2843357840EA453584
:101910002368CA225A62236853225A622046FFF77C
:10192000C8FE064610BB236825F07F4525F0C0059C
:101930005D602268D36823F08003D36023689B68CE
:1019400013F0200F1CD02368FF225A620123637713
:101950000023237712E0CD784878000240EA054062
:101960008D7828430D7840EA4535D1E72368FF227A
:101970005A6204236377002323770126304670BD23
:101980002046FFF77DFE0028DDD02368FF225A6243
:1019900004236377002323770126EFE70226EDE790
:1019A000030903EB83035A0000F00F001044C0B298
:1019B000704770B503689B6A4B6003681B69C3F38B
:1019C0000E038B6003681B6803F07F3323F0FE4334
:1019D0001D0C05F03F000870C3F306264E7003F09F
:1019E0007F048C7005F04005CD705AB90D46FFF7A5
:1019F000D7FF28703046FFF7D3FF68702046FFF707
:101A0000CFFFA870002070BD70B503685B6823F03D
:101A10007F4323F0C003180CC870C3F304264E7034
:101A200003F03F058D70C3F342330B705AB90C4677
:101A3000FFF7B6FFE0703046FFF7B2FF6070284650
:101A4000FFF7AEFFA070002070BD0268D36823F4DA
:101A50009073D3600268536923F00103536120231C
:101A600080F83A30704790F83930DBB2212B2AD118
:101A70008368B3F5805F16D0036A5A1C02621A7835
:101A800003685A60C38C013B9BB2C384EBB9026804
:101A9000D36823F08003D3600268D36843F0400327
:101AA000D36000207047036A1B880268C3F30803F1
:101AB000536003691BB9036A02330362E2E7036AF6
:101AC00001330362DEE70220704700207047000008
:101AD0002DE9F04B04460268136923F44053C168B2
:101AE0000B43136183680269134342691343C2695C
:101AF0001A430168CB6823F4164323F00C03134305
:101B0000CB600268536923F4407381690B435361CE
:101B1000C369B3F5004F3BD00368714A934200F0AC
:101B2000AB8002F58062934200F0A680FFF7D2FC02
:101B30004FF00009061849EB090716EB000B47EBBD
:101B4000090C4FEACC0343EA5B734FEACB0293469E
:101B50009C4663689A009B0F10EB0B0049EB0C014D
:101B6000FEF73EFB5F4DA5FB00325109642202FBEC
:101B7000110213013233A5FB03235B0903F0F002CA
:101B800002EB011203F00F03216813448B60A4E001
:101B90000368534A934239D002F58062934235D0AC
:101BA000FFF798FC83464FF0000C06184CEB0C072F
:101BB00016EB000847EB0C094FEAC90343EA5873D8
:101BC0004FEAC8029046994662680021921841EB9C
:101BD00001031BEB08004CEB0901FEF701FB414D33
:101BE000A5FB00325109642202FB1102D3003233FB
:101BF000A5FB03235B095A0002F4F87202EB011201
:101C000003F00703216813448B6066E0FFF772FC62
:101C100080464FF00009061849EB090716EB000B48
:101C200047EB090C4FEACC0343EA5B734FEACB0264
:101C300093469C4662680021921841EB010318EB21
:101C40000B0049EB0C01FEF7CBFA264DA5FB003249
:101C50005109642202FB1102D3003233A5FB032396
:101C60005B095A0002F4F87202EB011203F0070359
:101C7000216813448B6030E0FFF73CFC4FF0000913
:101C8000061849EB090716EB000B47EB090C4FEA66
:101C9000CC0343EA5B734FEACB0293469C466368EE
:101CA0009A009B0F10EB0B0049EB0C01FEF798FA22
:101CB0000C4DA5FB00325109642202FB11021301F5
:101CC0003233A5FB03235B0903F0F00202EB0112A0
:101CD00003F00F03216813448B60BDE8F08B00BF55
:101CE000001001401F85EB512DE9F04105460F46DC
:101CF00016469846069C2B681B6837EA03030CBF00
:101D000001230023B3421DD1B4F1FF3FF3D02CB126
:101D1000FEF784FFA0EB0800A042ECD92A68D36844
:101D200023F4D073D3602A68536923F0010353610D
:101D3000202385F8393085F83A30002385F838308B
:101D4000032000E00020BDE8F08158B310B5044640
:101D500090F839300BB3242384F839302268D368E3
:101D600023F40053D3602046FFF7B2FE22681369C4
:101D700023F4904313612268536923F02A035361CB
:101D80002268D36843F40053D3600020E06320232B
:101D900084F8393084F83A3010BD80F83830FEF7D6
:101DA0004DFED8E7012070472DE9F04383B01E4671
:101DB00090F83930DBB2202B56D104460D469046C0
:101DC000002956D0002A56D090F83830012B54D034
:101DD000012380F838304FF00009C0F83C902123EF
:101DE00080F83930FEF71AFF0746A4F82480A4F8DB
:101DF000268084F8389010E000963B46002280212F
:101E00002046FFF771FF002839D12B882268C3F3E1
:101E1000080353602369C3B90235E38C9BB2B3B1A5
:101E2000E38C013B9BB2E384A368B3F5805FE3D00E
:101E300000963B46002280212046FFF755FF00BB5D
:101E40002A7823685A600135E7E70135E5E700960F
:101E50003B46002240212046FFF746FF034690B94B
:101E6000202284F8392000E00223184603B0BDE8A0
:101E7000F0830123F9E70123F7E70223F5E70323C2
:101E8000F3E70323F1E70323EFE790F83A30DBB2FF
:101E9000202B20D109B312B390F83830012B20D079
:101EA00081628285C2850023C363222280F83A20A2
:101EB00080F838300168CA6842F48072CA600168EC
:101EC0004A6942F001024A610168CA6842F0200290
:101ED000CA601846704702207047012070470120F1
:101EE000704702207047704708B50168CB6823F03F
:101EF0004003CB60202380F83930FFF7F4FF002047
:101F000008BD08B590F83A30DBB2222B45D1836882
:101F1000B3F5805F0ED0036903BB03685A68836A18
:101F2000591C81621A70C38D013B9BB2C385F3B10A
:101F3000002033E0826A036943B903685B68C3F336
:101F400008031380836A02338362ECE703685B68EB
:101F5000DBB21380836A01338362E4E703685B6862
:101F6000826A511C816203F07F031370DBE7026811
:101F7000D36823F02003D3600268D36823F480730E
:101F8000D3600268536923F001035361202380F872
:101F90003A30FEF711FD002000E0022008BD704736
:101FA00010B5044602681368D168526913F00F0037
:101FB00005D113F0200F02D011F0200F56D10028C8
:101FC0006AD012F0010202D111F4907F64D013F0B4
:101FD000010F06D011F4807F03D0E06B40F00100C8
:101FE000E06313F0040F04D01AB1E06B40F002007C
:101FF000E06313F0020F04D01AB1E06B40F004006C
:10200000E06313F0080F07D011F0200F00D11AB1D0
:10201000E26B42F00802E263E26B002A48D013F060
:10202000200F02D011F0200F24D123685B6903F048
:102030004003E26B12F0080F00D13BB32046FFF7DC
:1020400004FD23685A6912F0400F1BD05A6922F030
:1020500040025A61636B8BB11A4A1A65606BFEF7D6
:102060004DFE28B3606B036D984721E02046FFF7D3
:1020700048FF1DE02046FFF744FFD6E72046FFF764
:102080008EFF15E02046FFF78AFF11E02046FFF79C
:1020900086FF0023E3630BE013F0800F02D011F002
:1020A000800F06D113F0400F02D011F0400F04D181
:1020B00010BD2046FFF7D7FCFAE72046FFF714FFD4
:1020C000F6E700BFC920000808B5806B0023C38570
:1020D000C384FFF764FF08BDDFF834D0002103E0BC
:1020E0000C4B5B58435004310B480C4B42189A423E
:1020F000F6D30B4A02E0002342F8043B094B9A4214
:10210000F9D3FEF733FD00F017F8FEF707FB704731
:1021100000800120883400080000002074000020A6
:10212000740000204C010020FEE70000014B1868FD
:10213000704700BF1000002070B50D4E0D4CA41B61
:10214000A4100025A54209D10B4E0C4C01F0C8F893
:10215000A41BA4100025A54205D170BD56F825305A
:1021600098470135EEE756F8253098470135F2E7F4
:10217000803400088034000880340008843400086B
:1021800002440346934200D1704703F8011BF9E76C
:102190000FB40A4B13B51C6824B1A36913B92046C8
:1021A00000F06EF805AB049AA1680193204600F098
:1021B000C7FA02B0BDE8104004B07047100000201C
:1021C0000EB400B59CB01DAB029006906FF00041BC
:1021D000094807910491094953F8042B05910068B7
:1021E000019302A900F08AF9029B00221A701CB028
:1021F0005DF804EB03B07047100000200802FFFFF9
:10220000002310B50446C0E9003383608181436632
:10221000C281C0E904338361194608225C30FFF7AC
:10222000AFFF054B6362054BA362054BE362054BB1
:102230002462236310BD00BF9D2C0008BF2C000842
:10224000F72C00081B2D0008014900F085B800BFDD
:10225000F52F000870B54A1E682555430E4605F156
:10226000740100F097F8044640B10021C0E900165F
:102270000C30A06005F16802FFF782FF204670BDB8
:10228000836910B5044633BBC0E912330365124BB2
:10229000124A1B688262984204BF0123836100F0E6
:1022A0001FF86060204600F01BF8A060204600F098
:1022B00017F80022E06004216068FFF7A1FF012207
:1022C0000921A068FFF79CFF02221221E068FFF7B6
:1022D00097FF0123A36110BDE033000849220008E5
:1022E000F8B51B4B1E68B369074613B93046FFF7B4
:1022F000C7FF4836D6E90134013B03D5336833B113
:102300003668F7E7B4F90C506DB16834F4E704218E
:102310003846FFF79FFF30600028F1D10C233B6067
:1023200004462046F8BD0B4B6566C4E90055A56020
:10233000C4E90335C4E905550822294604F15C00C7
:10234000FFF71EFFC4E90D55C4E91255E9E700BFC8
:10235000E03300080100FFFF2DE9F843804689467D
:1023600000F14804002614B93046BDE8F883D4E9EA
:102370000175013F01D52468F5E7AB89012B07D929
:10238000B5F90E30013303D029464046C84706430D
:102390006835EEE770B5CD1C25F0030508350C2D2A
:1023A00038BF0C25002D064601DBA94203D90C23BA
:1023B0003360002070BD00F0E1FE214A1468214620
:1023C00091B9204C23681BB9304600F057FC2060BF
:1023D0002946304600F052FC431C24D10C233360C4
:1023E000304600F0CCFEE4E70B685B1B18D40B2BE7
:1023F0000FD90B60CD50CC18304600F0C0FE04F170
:102400000B00231D20F00700C31AD3D05A42E2501C
:10241000D0E78C424B6816BF636013600C46EBE755
:102420000C464968CCE7C41C24F00304A04205D044
:10243000211A304600F022FC0130CFD02560DBE7C6
:102440009C000020A00000202DE9F0478E689E42ED
:1024500082460C469046994637D88A8912F4906F86
:1024600031D0256809696F1A6569022305EB4505B6
:1024700095FBF3F509F101033B449D4238BF1D462E
:10248000530530D52946FFF785FF064650B90C2382
:10249000CAF80030A38943F04003A3814FF0FF3016
:1024A000BDE8F0873A46216900F044FEA38923F491
:1024B000906343F08003A381266165613E44ED1B78
:1024C0002660A5604E464E4500D94E4632464146EE
:1024D000206800F03AFEA3689B1BA36023681E449B
:1024E00026600020DCE72A4600F098FE0646002819
:1024F000E2D12169504600F043FEC8E72DE9F04FD4
:102500001D468B891F069DB080460C4616460FD58A
:102510000B696BB94021FFF73DFF2060206128B9AE
:102520000C23C8F800304FF0FF30C8E0402363614F
:102530000023099320238DF8293030238DF82A3089
:1025400003954FF0010B37463D4615F8013B0BB1A3
:10255000252B3ED1B7EB060A0BD053463246214617
:102560004046FFF771FF013000F0A480099B5344FF
:1025700009933B78002B00F09D8000234FF0FF3241
:10258000CDE90523049307938DF853301A932F4612
:10259000052217F8011B5048FDF7AAFF049BD0B98C
:1025A000D90644BF20228DF853201A0744BF2B229E
:1025B0008DF853202A782A2A15D0079A2F46002012
:1025C0000A25394611F8013B303B092B4DD9B8B1EA
:1025D0000FE02F46B8E7404A801A0BFA00F0184384
:1025E00004903D46D3E7039A111D12680391002A17
:1025F00001DB079204E0524243F002030792049386
:102600003B782E2B0CD17B782A2B33D1039B1A1DC0
:102610001B680392002BB8BF4FF0FF3302370593BE
:102620002E4D397803222846FDF762FF38B140234A
:10263000401B03FA00F0049B0343013704933978ED
:1026400027488DF8281006227E1CFDF751FF002830
:1026500038D0244B13BB039B073323F00703083305
:102660000393099B4B4409936DE705FB023201205C
:102670000F46A6E700230137059319460A25384679
:1026800010F8012B303A092A03D9002BC8D0059144
:10269000C6E705FB012101230746F0E703AB0093E2
:1026A0002246114B04A94046AFF30080B0F1FF3F32
:1026B0008146D6D1A3895B063FF535AF09981DB099
:1026C000BDE8F08F03AB00932246074B04A94046B8
:1026D00000F0C2F9EAE700BF443400084A340008B9
:1026E0004E34000800000000492400089368013BB4
:1026F000002B10B4936008DA9469A34201DB0A2925
:1027000003D15DF8044B00F00DBB1368581C10603A
:10271000197008465DF8044B7047F8B506460F4639
:102720001446D518AC4201D1002007E03A4614F80F
:10273000011B3046FFF7DAFF431CF3D1F8BD000060
:102740002DE9F04F0C469DB017461D46064618B1C0
:1027500083690BB9FFF794FD7C4B9C4258D1746898
:10276000A38918075ED52369002B5BD0002309934A
:1027700020238DF8293030238DF82A3003954FF02F
:10278000010BB846454615F8013B0BB1252B54D13A
:10279000B8EB070A0BD053463A4621463046FFF7BE
:1027A000BCFF013000F0C280099B5344099398F8A4
:1027B0000030002B00F0BA8000234FF0FF32CDE94B
:1027C0000523049307938DF853301A93A8460522E6
:1027D00018F8011B5E48FDF78BFE049B78BBD906F9
:1027E00044BF20228DF853201A0744BF2B228DF8B6
:1027F00053202A782A2A2AD0079AA84600200A2598
:10280000414611F8013B303B092B69D960B324E004
:10281000504B9C4201D1B468A2E74F4B9C4208BF89
:10282000F4689DE72146304600F0E0FA00289DD08C
:102830004FF0FF301DB0BDE8F08FA846A2E7444A34
:10284000801A0BFA00F0184304904546BEE7039A3D
:10285000111D12680391002A01DB079204E0524225
:1028600043F002030792049398F800302E2B0ED108
:1028700098F801302A2B38D1039B1A1D1B6803924C
:10288000002BB8BF4FF0FF3308F102080593334D1A
:1028900098F8001003222846FDF72AFE40B1402395
:1028A000401B03FA00F0049B034308F10108049362
:1028B00098F800102A488DF82810062208F1010720
:1028C000FDF716FE002837D0264B1BBB039B0733B2
:1028D00023F0070308330393099B4B44099350E704
:1028E00005FB0232012088468AE7002308F101082F
:1028F000059319460A25404610F8012B303A092A5B
:1029000003D9002BC3D00591C1E705FB01210123A9
:102910008046F0E703AB00932246134B04A93046F0
:10292000AFF30080B0F1FF3F8146D5D1A3895B06AC
:102930003FF57EAF09987DE703AB009322460A4B33
:1029400004A9304600F088F8ECE700BF0434000822
:102950004434000824340008E43300084A340008F2
:102960004E340008000000001B2700082DE9F04746
:1029700091461F468A680B69DDF820809342B8BFF4
:102980001346C9F8003091F8432006460C4612B1B0
:102990000133C9F800302368990642BFD9F80030E6
:1029A0000233C9F80030256815F0060507D104F197
:1029B000190AE368D9F800209B1AAB4228DC94F886
:1029C00043302268003318BF012392062DD404F14E
:1029D000430239463046C047013020D02368E568BD
:1029E000D9F8002003F00603042B08BFAD1AA36832
:1029F00022690CBF25EAE57500259342C4BF9B1AE6
:102A0000ED184FF000091A344D451AD1002008E0A6
:102A10000123524639463046C047013003D14FF0BA
:102A2000FF30BDE8F0870135C3E7E1185A1C3020BC
:102A300081F84300224494F8451082F84310023391
:102A4000C5E70123224639463046C0470130E6D06B
:102A500009F10109D8E700002DE9F04301F1430C29
:102A60000C46097E85B06E291746064698460C9A94
:102A700000F0B38022D8632936D00AD8002900F0AC
:102A8000B980582900F0838004F1420584F842108F
:102A900032E0642901D06929F6D12068136805065F
:102AA00003F104012AD51B681160002B03DA2D22E3
:102AB0005B4284F843206F480A2239E0732900F012
:102AC0009D8008D86F2920D07029DDD1236843F07C
:102AD0002003236003E0752917D07829D4D1782307
:102AE00084F84530644855E01368191D1B6811606F
:102AF00004F1420584F8423001238CE01B68116028
:102B000010F0400F18BF1BB2CFE713682568181DDF
:102B10001060280601D51B6802E06806FBD51B88FB
:102B200054486F2914BF0A220822002184F8431058
:102B30006568A560002DC0F29580216821F0040130
:102B40002160002B3DD1002D40F08E806546082A83
:102B50000BD12368DB0708D5236962689A42DEBF80
:102B6000302305F8013C05F1FF35ACEB050323618B
:102B7000CDF800803B4603AA21463046FFF7F6FE1B
:102B800001304DD14FF0FF3005B0BDE8F08339483A
:102B900084F84510136821681D1D1B6815600A061E
:102BA0000BD5CA0744BF41F0200121601BB9226840
:102BB00022F0200222601022B7E74D0648BF9BB2E8
:102BC000EFE76546B3FBF2F102FB1133C35C05F896
:102BD000013D0B460029F5D1B9E713682568616905
:102BE000181D106028061B6801D5196002E06A06EE
:102BF000FBD51980002323616546B9E71368191DC9
:102C000011601D68626800212846FDF771FC08B15B
:102C1000401B606063682361002384F84330A7E7AA
:102C200023692A4639463046C0470130AAD0236876
:102C30009B0713D4E068039B9842B8BF1846A3E7EC
:102C400001234A4639463046C04701309AD0013503
:102C5000E368039A9B1AAB42F2DCEBE7002504F130
:102C60001909F5E7002BACD1037884F8423004F160
:102C700042056CE7553400086634000838B5064C48
:102C80000023054608462360FDF746FF431C02D19A
:102C9000236803B12B6038BD4801002010B50C46F5
:102CA000B1F90E1000F0E0FA0028ABBF636DA38904
:102CB0001B1823F48053ACBF6365A38110BD2DE9BD
:102CC000F0411F468B89DB0505460C46164605D5A7
:102CD00002230022B1F90E1000F0B6F9A389B4F96D
:102CE0000E1023F48053A38132463B462846BDE8AC
:102CF000F04100F069B810B50C46B1F90E1000F0C3
:102D0000A3F9431CA38915BF606523F4805343F4E2
:102D10008053A38118BFA38110BDB1F90E1000F03C
:102D2000D3B80000F8B50E461446054618B18369BD
:102D30000BB9FFF7A5FA214B9C422AD16C68A36915
:102D4000A360A3891A072ED5236963B3236920687A
:102D5000C01A6369F6B28342374604DC214628462E
:102D600000F048F928BBA368013BA36023685A1C04
:102D700022601E7063690130834204D0A389DB079F
:102D800019D50A2E17D12146284600F033F990B103
:102D90000FE00B4B9C4201D1AC68D0E7094B9C4241
:102DA00008BFEC68CBE72146284600F01FF8002852
:102DB000CCD04FF0FF373846F8BD00BF04340008D0
:102DC00024340008E433000838B5074C05460846AB
:102DD0001146002222601A46FDF790FE431C02D1E4
:102DE000236803B12B6038BD48010020324B70B519
:102DF0001D6806460C4625B1AB6913B92846FFF796
:102E00003FFA2E4B9C420FD16C68B4F90C309AB249
:102E100015072CD4D00611D40922326043F04003A8
:102E2000A3814FF0FF303EE0254B9C4201D1AC68BE
:102E3000EBE7244B9C4208BFEC68E6E7510712D54C
:102E4000616B41B104F14403994202D0304600F075
:102E500097F900236363A38923F02403A38100234C
:102E6000636023692360A38943F00803A381236976
:102E70004BB9A38903F42073B3F5007F03D0214637
:102E8000304600F017F9A28912F001030CD000239C
:102E9000A36063695B42A361236953B9B4F90C3041
:102EA00013F08000BAD170BD920758BF6369A36068
:102EB000F2E70020F7E700BF10000020043400080C
:102EC00024340008E433000838B5064C00230546D6
:102ED00008462360FDF73EFE431C02D1236803B180
:102EE0002B6038BD480100208A892DE9F041054654
:102EF00010070C4658D44B68002B05DC0B6C002BDC
:102F000002DC0020BDE8F081E66A002EF9D0002343
:102F100012F480522F68216A2B6032D0606DA38931
:102F20005A0705D56368C01A636B0BB1236CC01ACE
:102F300000230246E66A216A2846B047431CA3895B
:102F400006D129681D2948D8294ACA40D60744D540
:102F500000226260D9042269226004D5421C01D19A
:102F60002B6803B96065616B2F600029C9D004F13B
:102F70004403994202D0284600F002F90020606321
:102F8000C0E701232846B047411CC8D12B68002B5D
:102F9000C5D01D2B01D0162B01D12F60B1E7A3891D
:102FA00043F04003A381ADE70F69002FA9D0930739
:102FB0000E6808BF4B690F6018BF0023A6EB070817
:102FC0008B60B8F1000F9CDD43463A46216AA66A41
:102FD0002846B047002806DCA38943F04003A381BC
:102FE0004FF0FF308EE70744A8EB0008E9E700BF89
:102FF0000100402038B50B6905460C46DBB118B11D
:1030000083690BB9FFF73CF90C4B9C4209D16C6802
:10301000B4F90C307BB121462846BDE83840FFF7B3
:1030200063BF074B9C4201D1AC68F1E7054B9C4262
:1030300008BFEC68ECE7002038BD00BF043400088E
:1030400024340008E433000838B5074C0546084628
:103050001146002222601A46FDF786FD431C02D16C
:10306000236803B12B6038BD4801002070B50E46BF
:10307000B1F90E10002996B014461D4607DA002358
:103080002B60B3891A0610D44FF480630EE06A46B1
:1030900000F0FCF80028F2DB019A02F47042A2F57D
:1030A00000535A425A412A60EEE740230020236031
:1030B00016B070BD8B8973B59D0706460C4607D5C3
:1030C00004F14703236023610123636102B070BDF3
:1030D00001AB6A46FFF7CAFF009905463046FFF785
:1030E00059F948B9B4F90C309A05EFD423F0030329
:1030F00043F00203A381E3E70D4BB362A389206091
:1031000043F08003A381009B6361019B20615BB15D
:10311000B4F90E10304600F0CBF828B1A38923F0A3
:10312000030343F00103A381A3891D43A581CDE7D8
:103130004922000810B5431E0A44914200D110BD37
:1031400011F8014B03F8014FF7E7884210B501EB86
:10315000020307D8421E99420AD011F8014B02F827
:10316000014FF8E78342F5D98118D21AD34200D132
:1031700010BD13F8014D01F8014DF7E77047704796
:1031800038B50546002945D051F8043C0C1F002BEA
:10319000B8BFE418FFF7F2FF1F4A1368104633B9AF
:1031A000636014602846BDE83840FFF7E8BFA342DB
:1031B0000CD921686218934204BF1A685B68636087
:1031C00004BF521822600460ECE713465A680AB143
:1031D000A242FAD919685818A0420BD120680144BC
:1031E000581882421960DDD1106852685A60014453
:1031F0001960D7E702D90C232B60D3E72068211888
:103200008A4204BF11685268626004BF09182160D5
:103210005C60C7E738BD00BF9C000020F8B50746DA
:1032200014460E4621B91146BDE8F840FFF7B2B882
:1032300022B9FFF7A5FF25462846F8BD00F048F85B
:10324000A0420FD221463846FFF7A4F805460028D1
:10325000F2D031462246FFF76DFF31463846FFF780
:103260008FFFE9E73546E7E738B5074C05460846DE
:103270001146002222601A46FDF732FC431C02D19F
:10328000236803B12B6038BD4801002038B5074CD6
:1032900000230546084611462360FDF75EFC431CEB
:1032A00002D1236803B12B6038BD00BF4801002064
:1032B00038B5064C0023054608462360FDF752FC4E
:1032C000431C02D1236803B12B6038BD48010020A4
:1032D00051F8043C181F002BBCBF0B58C018704796
:1032E000F8B500BFF8BC08BC9E467047F8B500BFF3
:0832F000F8BC08BC9E467047C3
:1032F800000000000000000001020304060708099E
:10330800000000000102030425302A692F25302A15
:10331800692F323025302A69202D2025302A693A34
:1033280025302A693A25302A690A0D0025730000DC
:10333800486F726120416A7573746164613A0D0A5D
:10334800000000004461746120416A75737461640F
:10335800613A0D0A000000004469676974652061DC
:10336800206E6F766120686F7261206E6F20666FC5
:10337800726D61746F3A2048484D4D53530D0A00E1
:103388004469676974652061206E6F7661206461A5
:103398007461206E6F20666F726D61746F3A20449D
:1033A800444D4D41410D0A00436F6D616E646F20BD
:1033B800496E76616C69646F2E20506F7220666169
:1033C800766F722064696769746520482C204420F0
:1033D8006F75205600000000140000200000000057
:1033E80000000000000000000000000000000000D5
:1033F80000000000000000000000000000000000C5
:1034080000000000000000000000000000000000B4
:1034180000000000000000000000000000000000A4
:103428000000000000000000000000000000000094
:10343800000000000000000000000000232D302BD9
:103448002000686C4C00656667454647003031329D
:1034580033343536373839414243444546003031F4
:103468003233343536373839616263646566000053
:0834780098CDFF7F0100000068
:04348000C50100087A
:04348400A10100089A
:10348800060100000024F400010000001000000004
:103498001400002000000000043400082434000850
:1034A800E4330008000000000000000000000000F5
:1034B8000000000000000000000000000000000004
:1034C80000000000000000000000000000000000F4
:1034D80000000000000000000000000000000000E4
:1034E80000000000000000000000000000000000D4
:0434F80000000000D0
:04000005080020D9F6
:00000001FF
